:100000000C9462000C948A000C948A000C948A0070
:100010000C948A000C948A000C948A000C948A0038
:100020000C948A000C948A000C948A000C948A0028
:100030000C948A000C948A000C948A000C948A0018
:100040000C94CE030C948A000C94E8040C948A005F
:100050000C948A000C948A000C948A000C948A00F8
:100060000C948A000C948A000000000024002700F1
:100070002A0000000000250028002B0000000000DE
:1000800023002600290004040404040404040202DA
:100090000202020203030303030301020408102007
:1000A0004080010204081020010204081020000012
:1000B0000007000201000003040600000000000029
:1000C00000006D0611241FBECFEFD8E0DEBFCDBF0C
:1000D00011E0A0E0B1E0EAE3F2E102C005900D9288
:1000E000A831B107D9F712E0A8E1B1E001C01D9233
:1000F000A933B107E1F710E0C4ECD0E004C02297C7
:10010000FE010E941709C23CD107C9F70E94C7032C
:100110000C941B090C940000EF92FF920F931F9315
:10012000CF93DF9386E292E00E941E068823D9F1E6
:1001300086E292E00E9432069093190180931801A2
:100140008F3F910581F480911A0190911B010196D6
:1001500090931B0180931A0102974CF010921D019D
:1001600010921C0113C010921B0110921A01809171
:100170001C0190911D01FC01E15EFE4F20911801D0
:100180002083019690931D0180931C0180911C0196
:1001900090911D0106973CF080911E01882319F46F
:1001A00081E080931E0180911E01882309F45FC1C4
:1001B0008DE061E00E949B0480912001E82FF0E037
:1001C00090911F0180E0E82BF92BF0932A01E09336
:1001D00029019091210180E02091220130E0822BC1
:1001E000932B90932E0180932D019091230180E019
:1001F0002091240130E0282B392B309332012093B9
:10020000310140913501509136014E1B5F0B440F77
:10021000551F5093420140934101BA01660F771F69
:100220001416150614F4CB0104C088279927861BE1
:10023000970B9093920180939101F0933601E09394
:100240003501E0912D01F0912E01809139019091BD
:100250003A018E1B9F0B9093440180934301BC0194
:10026000660F771F1816190614F4CB0104C08827EF
:100270009927861B970B9093940180939301F09399
:100280003A01E093390180913D0190913E01821B3A
:10029000930B9093460180934501BC01660F771F35
:1002A0001816190614F4CB0104C088279927861B59
:1002B000970B909396018093950130933E01209384
:1002C0003D0157FF04C08091060161E003C08091A9
:1002D000060160E00E949B048091430190914401DB
:1002E00097FF04C08091080161E003C0809108017C
:1002F00060E00E949B04809145019091460197FF28
:1003000004C080910A0161E003C080910A0160E0AD
:100310000E949B0420910C0130910D0180914101BC
:100320009091420197FF03C0909581959F4F2817A8
:10033000390764F0809143019091440197FF03C015
:10034000909581959F4F2817390744F430934201C7
:1003500020934101309344012093430110921D01E9
:1003600010921C0110921E010E9416040E94DC07CC
:100370002091530130915401409155015091560103
:100380000E94DE0660935B0170935C0180935D01C7
:1003900090935E010E9416040E94DC076093530153
:1003A00070935401809355019093560120919701C9
:1003B00030919801F901EE0FFF1FEE0FFF1FED596D
:1003C000FE4F80915B0190915C01A0915D01B09125
:1003D0005E0180839183A283B3832A3031053CF48C
:1003E0002F5F3F4F309398012093970104C01092E4
:1003F00098011092970110925F0110926001109283
:10040000610110926201C3E6D1E020E030E040E0FB
:1004100050E0CA01B9010E94DE0729913991499142
:1004200059910E94DF060E94AB079B01AC0181E05D
:10043000CB38D80771F720935F0130936001409368
:10044000610150936201B901CA0124E130E040E04A
:1004500050E00E94E608CA01B9010E94DE076093DD
:100460005701709358018093590190935A018091DC
:10047000910190919201181619060CF064C00E9427
:100480001604209147013091480140914901509153
:100490004A01621B730B840B950B0E94DC077B01E6
:1004A0008C01209141013091420137FF03C030950A
:1004B00021953F4FB901882777FD8095982F0E949D
:1004C000DE079B01AC01609157017091580180914A
:1004D000590190915A010E9443079B01AC01C80148
:1004E000B7010E948E08882374F10E94160460935D
:1004F0004701709348018093490190934A0180918C
:100500008B0190918C01019799F48091000160E03A
:100510000E949B0480919101909192010197909388
:1005200092018093910110928C0110928B010BC06B
:100530008091000161E00E949B0481E090E0909333
:100540008C0180938B0180919301909194011816F6
:1005500019060CF064C00E94160420914B013091E2
:100560004C0140914D0150914E01621B730B840B65
:10057000950B0E94DC077B018C0120914301309197
:10058000440137FF03C0309521953F4FB9018827BB
:1005900077FD8095982F0E94DE079B01AC0160914A
:1005A0005701709158018091590190915A010E9410
:1005B00043079B01AC01C801B7010E948E08882344
:1005C00074F10E94160460934B0170934C01809368
:1005D0004D0190934E0180918D0190918E01019774
:1005E00099F48091020160E00E949B048091930144
:1005F00090919401019790939401809393011092AC
:100600008E0110928D010BC08091020161E00E9469
:100610009B0481E090E090938E0180938D01809106
:10062000950190919601181619060CF064C00E946D
:10063000160420914F013091500140915101509189
:100640005201621B730B840B950B0E94DC077B012C
:100650008C01209145013091460137FF03C0309550
:1006600021953F4FB901882777FD8095982F0E94EB
:10067000DE079B01AC016091570170915801809198
:10068000590190915A010E9443079B01AC01C80196
:10069000B7010E948E08882374F10E9416046093AB
:1006A0004F017093500180935101909352018091BA
:1006B0008F0190919001019799F48091040160E07D
:1006C0000E949B04809195019091960101979093CF
:1006D0009601809395011092900110928F010BC0AA
:1006E0008091040161E00E949B0481E090E090937E
:1006F000900180938F01DF91CF911F910F91FF9017
:10070000EF90089586E292E040E052EC61E070E004
:100710000E9425058091000161E00E947B04809188
:10072000020161E00E947B048091040161E00E946B
:100730007B048091060161E00E947B0480910801A6
:1007400061E00E947B0480910A0161E00E947B04C9
:1007500086E060E00E947B0487E060E00E947B040A
:1007600088E060E00E947B0489E060E00E947B04F6
:10077000E3E6F1E080E095E3A2E8B7E481939193AA
:10078000A193B19321E0EB38F207C1F708950E94DD
:1007900041040E9482030E948C00FDCF1F920F92A1
:1007A0000FB60F9211242F933F938F939F93AF9384
:1007B000BF9380919D0190919E01A0919F01B09166
:1007C000A0013091A1010196A11DB11D232F2D5F24
:1007D0002D3720F02D570196A11DB11D2093A101A9
:1007E00080939D0190939E01A0939F01B093A001DF
:1007F0008091990190919A01A0919B01B0919C01E7
:100800000196A11DB11D8093990190939A01A09327
:100810009B01B0939C01BF91AF919F918F913F91AC
:100820002F910F900FBE0F901F9018956FB7F894EF
:1008300086B590E0A0E0B0E0A89B08C00097A105B5
:10084000B10521F480E091E0A0E0B0E020919901B1
:1008500030919A0140919B0150919C016FBF542FA0
:10086000432F322F2227280F391F4A1F5B1F82E098
:10087000220F331F441F551F8A95D1F7B901CA01B2
:100880000895789484B5826084BD84B5816084BD08
:1008900085B5826085BD85B5816085BDEEE6F0E0F9
:1008A000808181608083E1E8F0E0808182608083E4
:1008B000808181608083E0E8F0E0808181608083D6
:1008C000E1EBF0E0808184608083E0EBF0E0808108
:1008D00081608083EAE7F0E08081846080838081AA
:1008E0008260808380818160808380818068808352
:1008F0001092C1000895282F30E0C90186569F4FFD
:10090000FC0194912A573F4FF9018491882391F07B
:10091000E82FF0E0EE0FFF1FE859FF4FA591B491CB
:10092000662329F48C91909589238C9308958C915A
:10093000892B8C930895482F50E0CA0182559F4F10
:10094000FC012491CA0186569F4FFC0194914A579D
:100950005F4FFA0134913323D1F1222331F1233057
:1009600021F4809180008F7705C0243031F480918C
:1009700080008F7D8093800018C0213019F484B5E9
:100980008F7704C0223021F484B58F7D84BD0DC0E3
:10099000263021F48091B0008F7705C0273029F4EC
:1009A0008091B0008F7D8093B000E32FF0E0EE0FD8
:1009B000FF1FEE58FF4FA591B491662329F48C9147
:1009C000909589238C9308958C91892B8C9308950D
:1009D0001F920F920FB60F9211242F933F934F93B4
:1009E0005F936F937F938F939F93AF93BF93EF9397
:1009F000FF934091C600E0912202F0912302CF01C3
:100A0000019660E870E00E94B1089C018091240288
:100A1000909125022817390739F0EE55FE4F408393
:100A20003093230220932202FF91EF91BF91AF9167
:100A30009F918F917F916F915F914F913F912F91F6
:100A40000F900FBE0F901F9018955F926F927F923C
:100A50008F929F92AF92BF92CF92DF92EF92FF92CE
:100A60000F931F93CF93DF93EC013A014B01413475
:100A700082E458078FE0680780E078070CF07FC0B9
:100A800060E874E88EE190E0A40193010E94E6081A
:100A90002150304040405040CA01B90122E030E0CE
:100AA00040E050E00E94E60859016A01A601950164
:100AB000209530954095509594E0220F331F441FA8
:100AC000551F9A95D1F760E074E284EF90E00E94A0
:100AD000E608CA01B9012FEF30E040E050E00E9483
:100AE0009208A40193010E94E608C90181509F4F1A
:100AF000181619061CF4522E5A9403C05524539408
:100B0000521A60E079E08DE390E0A40193010E9425
:100B1000E6082150304040405040CA01B90122E06F
:100B200030E040E050E00E94E60820953095409586
:100B3000509583E0220F331F441F551F8A95D1F72C
:100B400060E074E284EF90E00E94E608CA01B90117
:100B50002FEF30E040E050E00E949208A4019301A2
:100B60000E94E608C90181509F4F181619061CF40F
:100B7000822F815002C081E0821B851500F5E88537
:100B8000F98581E090E00A8802C0880F991F0A94D5
:100B9000E2F7808360E079E08DE390E0A4019301C7
:100BA0000E94E6082150304040405040CA01B9013F
:100BB00022E030E040E050E00E94E60804C0E88512
:100BC000F98510829501EC81FD813083EE81FF81F2
:100BD0002083EA85FB85208141E050E0CA010E8434
:100BE00002C0880F991F0A94E2F7282B2083EA8518
:100BF000FB852081CA010F8402C0880F991F0A94C7
:100C0000E2F7282B2083EA85FB858081088802C0D3
:100C1000440F551F0A94E2F7842B8083DF91CF9114
:100C20001F910F91FF90EF90DF90CF90BF90AF900A
:100C30009F908F907F906F905F900895DC01129647
:100C4000ED91FC911397E058FF4F8191919180585D
:100C50009F4F20813181821B930B60E870E00E94DE
:100C6000B1080895CF93DF93DC011296ED91FC91CA
:100C70001397EF01CE57DF4F48815981E058FF4F5E
:100C800080819181E058F0408417950719F42FEF87
:100C90003FEF0CC0E40FF51F2081CA01019660E808
:100CA00070E00E94B1089983888330E0C901DF9128
:100CB000CF910895FC01A085B18521898C9190E0A8
:100CC000022E02C0959587950A94E2F780FFF6CF31
:100CD0000484F585E02D6083089582E191E090938E
:100CE00027028093260282EA91E090932902809362
:100CF000280285EC90E090932B0280932A0284ECEA
:100D000090E090932D0280932C0280EC90E09093E1
:100D10002F0280932E0281EC90E090933102809319
:100D2000300286EC90E0909333028093320284E0AC
:100D30008093340283E08093350287E0809336020B
:100D400085E08093370281E08093380208950F9305
:100D50001F93CF93DF938C01EB0109C02196D8013B
:100D6000ED91FC910190F081E02DC8010995688119
:100D70006623A1F7DF91CF911F910F910895EF9214
:100D8000FF920F931F93CF93DF938C017B01EA01B6
:100D90000CC0D7016D917D01D801ED91FC910190BE
:100DA000F081E02DC80109952197209791F7DF91F7
:100DB000CF911F910F91FF90EF9008955058BB274E
:100DC000AA270ED071C162D130F067D120F031F482
:100DD0009F3F11F41EF457C10EF4E095E7FB4DC19F
:100DE000E92F73D180F3BA17620773078407950759
:100DF00018F071F49EF58BC10EF4E0950B2EBA2F0E
:100E0000A02D0B01B90190010C01CA01A001112410
:100E1000FF27591B99F0593F50F4503E68F11A16BC
:100E2000F040A22F232F342F4427585FF3CF46954D
:100E300037952795A795F0405395C9F77EF41F166F
:100E4000BA0B620B730B840BBAF09150A1F0FF0F39
:100E5000BB1F661F771F881FC2F70EC0BA0F621F25
:100E6000731F841F48F4879577956795B795F79515
:100E70009E3F08F0B3CF9395880F08F09927EE0FA7
:100E80009795879508950CD00FC107D140F0FED0FB
:100E900030F021F45F3F19F0F0C0511139C1F3C0B7
:100EA00014D198F39923C9F35523B1F3951B550B2E
:100EB000BB27AA2762177307840738F09F5F5F4F2D
:100EC000220F331F441FAA1FA9F333D00E2E3AF06E
:100ED000E0E830D091505040E695001CCAF729D088
:100EE000FE2F27D0660F771F881FBB1F26173707D7
:100EF0004807AB07B0E809F0BB0B802DBF01FF2707
:100F000093585F4F2AF09E3F510568F0B6C000C16C
:100F10005F3FECF3983EDCF3869577956795B79540
:100F2000F7959F5FC9F7880F911D9695879597F95B
:100F30000895E1E0660F771F881FBB1F62177307D4
:100F40008407BA0720F0621B730B840BBA0BEE1FE9
:100F500088F7E095089504D06894B111D9C0089538
:100F6000BCD088F09F5790F0B92F9927B751A0F0C7
:100F7000D1F0660F771F881F991F1AF0BA95C9F72D
:100F800012C0B13081F0C3D0B1E00895C0C0672F66
:100F9000782F8827B85F39F0B93FCCF386957795DD
:100FA0006795B395D9F73EF49095809570956195C6
:100FB0007F4F8F4F9F4F0895E89409C097FB3EF4F1
:100FC00090958095709561957F4F8F4F9F4F992396
:100FD000A9F0F92F96E9BB279395F6958795779514
:100FE0006795B795F111F8CFFAF4BB0F11F460FFD4
:100FF0001BC06F5F7F4F8F4F9F4F16C0882311F02C
:1010000096E911C0772321F09EE8872F762F05C03F
:10101000662371F096E8862F70E060E02AF09A95DA
:10102000660F771F881FDAF7880F9695879597F9CF
:101030000895990F0008550FAA0BE0E8FEEF161669
:101040001706E807F907C0F012161306E407F507BC
:1010500098F0621B730B840B950B39F40A2661F030
:10106000232B242B252B21F408950A2609F4A140D3
:10107000A6958FEF811D811D089597F99F6780E8E0
:1010800070E060E008959FEF80EC089500240A94DA
:101090001616170618060906089500240A94121653
:1010A0001306140605060895092E0394000C11F486
:1010B000882352F0BB0F40F4BF2B11F460FF04C033
:1010C0006F5F7F4F8F4F9F4F089557FD9058440F8C
:1010D000551F59F05F3F71F04795880F97FB991F97
:1010E00061F09F3F79F08795089512161306140654
:1010F000551FF2CF4695F1DF08C0161617061806E1
:10110000991FF1CF86957105610508940895E894BB
:10111000BB2766277727CB0197F908958ADF08F464
:101120008FEF0895629FD001739FF001829FE00DC1
:10113000F11D649FE00DF11D929FF00D839FF00D56
:10114000749FF00D659FF00D9927729FB00DE11D02
:10115000F91F639FB00DE11DF91FBD01CF011124DF
:10116000089597FB092E07260AD077FD04D049D0B1
:1011700006D000201AF4709561957F4F0895F6F718
:10118000909581959F4F0895A1E21A2EAA1BBB1B33
:10119000FD010DC0AA1FBB1FEE1FFF1FA217B30743
:1011A000E407F50720F0A21BB30BE40BF50B661F59
:1011B000771F881F991F1A9469F76095709580951D
:1011C00090959B01AC01BD01CF01089597FB092EBD
:1011D00005260ED057FD04D0D7DF0AD0001C38F406
:1011E00050954095309521953F4F4F4F5F4F089553
:1011F000F6F790958095709561957F4F8F4F9F4F33
:101200000895AA1BBB1B51E107C0AA1FBB1FA6174D
:10121000B70710F0A61BB70B881F991F5A95A9F79F
:1012200080959095BC01CD010895EE0FFF1F0590AC
:0A123000F491E02D0994F894FFCF2B
:10123A00020004000C00030005000D00D0070000A6
:08124A0000005A06A706BF06CA
:00000001FF
