:100000000C9462000C948A000C948A000C948A0070
:100010000C948A000C948A000C948A000C948A0038
:100020000C948A000C948A000C948A000C948A0028
:100030000C948A000C948A000C948A000C948A0018
:100040000C940F030C948A000C9487040C948A007F
:100050000C948A000C948A000C948A000C948A00F8
:100060000C948A000C948A000000000024002700F1
:100070002A0000000000250028002B0000000000DE
:1000800023002600290004040404040404040202DA
:100090000202020203030303030301020408102007
:1000A0004080010204081020010204081020000012
:1000B0000007000201000003040600000000000029
:1000C0000000DC0511241FBECFEFD4E0DEBFCDBFA2
:1000D00011E0A0E0B1E0ECE9F1E102C005900D9281
:1000E000AA31B107D9F711E0AAE1B1E001C01D9230
:1000F000A63DB107E1F710E0C4ECD0E004C02297C0
:10010000FE010E94C808C23CD107C9F70E9408033B
:100110000C94CC080C9400005F926F927F928F92A7
:100120009F92AF92BF92CF92DF92EF92FF920F9386
:100130001F93CF93DF93582ED62EC22E842F81503B
:10014000803228F0EE24EA94FE2C870142C0EE248F
:10015000FF248701C0E0D0E0A42EBB243501089421
:100160006108710830C0CC2049F48D2D60E00E94F8
:10017000EB038D2D61E00E94EB0313C081E0C816F4
:1001800081F48D2D61E00E94EB0381E090E00E94FC
:1001900065038D2D60E00E94EB0381E090E00E94FA
:1001A0006503852D0E94380490E002C0880F991FD6
:1001B0008A94E2F7AA2797FDA095BA2FE82AF92A90
:1001C0000A2B1B2B219643018C1A9D0ACA15DB05AD
:1001D00051F6B701C801DF91CF911F910F91FF90A8
:1001E000EF90DF90CF90BF90AF909F908F907F90D7
:1001F0006F905F900895EF92FF920F931F93CF93AC
:10020000DF9385E060E00E94EB0387E066E04CE06E
:1002100020E00E948C00162F072FF82EE92E87E091
:1002200066E045E020E00E948C00EB0187E066E09C
:1002300041E020E00E948C0085E061E00E94EB0339
:10024000C4FD05C02FEF3FEF4FEF5FEF08C0212F38
:10025000302F4F2D5E2DC901DA019C01AD01C3FF86
:1002600004C02EEF3FEF4FEF5FEFC2FF04C02DEF52
:100270003FEF4FEF5FEFC370D070239721F42CEF67
:100280003FEF4FEF5FEFB901CA01DF91CF911F91AF
:100290000F91FF90EF9008956F927F928F929F92AF
:1002A000AF92BF92CF92DF92EF92FF920F931F9384
:1002B000809100010E94AD03AA2797FDA095BA2F57
:1002C000BC01CD010E948F0760931A0170931B013E
:1002D00080931C0190931D01809102010E94AD0347
:1002E000AA2797FDA095BA2FBC01CD010E948F07C8
:1002F0005B016C0160931E0170931F0180932001CC
:1003000090932101E0901A01F0901B0100911C01D3
:1003100010911D01C801B701A60195010E94250792
:100320003B014C0160930601709307018093080123
:1003300090930901C801B70120E030E041EE53E499
:100340000E943F08181654F0C601B50120E030E0C5
:1003500048E453E40E943F08181654F5C401B30161
:100360002DEC3CEC4CE250E40E943F0818166CF473
:1003700080912201909123018B3091058CF501969B
:1003800090932301809322012BC0C401B30126E680
:1003900036E646E65FE30E94210788234CF480910D
:1003A0002401909125018B309105D4F4019614C05D
:1003B0008091220190912301181619062CF40197BF
:1003C0009093230180932201809124019091250133
:1003D000181619062CF40197909325018093240197
:1003E0008091220190912301049754F083EC91E0D5
:1003F00042E050E060E070E020E030E00E940C0756
:10040000809124019091250104977CF083EC91E088
:1004100043E050E060E070E020E030E00E940C0734
:100420008091040160E00E94EB038091240190918F
:100430002501892B59F48091220190912301892B68
:1004400029F48091040161E00E94EB030E94FB000B
:10045000882777FD8095982F20910A0130910B0114
:1004600040910C0150910D010E949708C901DA01D9
:100470008093260190932701A0932801B09329012E
:1004800020912A0130912B0140912C0150912D0196
:1004900082179307A407B50799F0109230010E94C4
:1004A000570380913101681B609335010E94570307
:1004B0006093310170933201809333019093340142
:1004C00080913001882309F070C08DE061E00E94C6
:1004D000EB0383EC91E00E94BD0520912601309151
:1004E0002701409128015091290180912A01909182
:1004F0002B01A0912C01B0912D01281739074A0733
:100500005B0754F0273031054105510501F500978F
:10051000A105B10551F01BC00797A105B10529F44C
:10052000211531054105510591F080912E019091E1
:100530002F01892B39F483EC91E040E050E060E03A
:1005400070E011C010922F0110922E0117C08091FF
:100550002E0190912F01019759F483EC91E041E035
:1005600050E060E070E020E030E00E940C0706C040
:1005700081E090E090932F0180932E0183EC91E035
:100580000E94BD058091260190912701A09128012C
:10059000B091290180932A0190932B01A0932C0103
:1005A000B0932D0181E0809330011F910F91FF9056
:1005B000EF90DF90CF90BF90AF909F908F907F9003
:1005C0006F9008958DE061E00E94CB0383EC91E091
:1005D00040E052EC61E070E00E94C40480910401AC
:1005E00061E00E94CB0387E060E00E94CB0386E0DD
:1005F00061E00E94CB0385E061E00E94CB0386E0CE
:1006000061E00E94EB0385E061E00E94EB03089546
:100610000E9473030E94E2020E944C01FDCF1F92D0
:100620000F920FB60F9211242F933F938F939F93A6
:10063000AF93BF9380913A0190913B01A0913C010F
:10064000B0913D0130913E010196A11DB11D232FB6
:100650002D5F2D3720F02D570196A11DB11D209340
:100660003E0180933A0190933B01A0933C01B093EB
:100670003D018091360190913701A0913801B091F0
:1006800039010196A11DB11D809336019093370168
:10069000A0933801B0933901BF91AF919F918F9191
:1006A0003F912F910F900FBE0F901F9018958FB70D
:1006B000F89420913A0130913B0140913C015091D6
:1006C0003D018FBFB901CA010895019759F0FC019E
:1006D000EE0FFF1FEE0FFF1F32978FB7F894319781
:1006E000F1F78FBF0895789484B5826084BD84B596
:1006F000816084BD85B5826085BD85B5816085BD1D
:10070000EEE6F0E0808181608083E1E8F0E08081C6
:1007100082608083808181608083E0E8F0E0808176
:1007200081608083E1EBF0E0808184608083E0EB96
:10073000F0E0808181608083EAE7F0E0808184607E
:1007400080838081826080838081816080838081DA
:10075000806880831092C10008958F7090910E017F
:100760009295990F990F907C982B90937C00809193
:100770007A00806480937A0080917A0086FDFCCFB5
:100780002091780040917900942F80E030E0282B70
:10079000392BC9010895282F30E0C90186569F4F93
:1007A000FC0194912A573F4FF9018491882391F0DD
:1007B000E82FF0E0EE0FFF1FE859FF4FA591B4912D
:1007C000662329F48C91909589238C9308958C91BC
:1007D000892B8C930895482F50E0CA0182559F4F72
:1007E000FC012491CA0186569F4FFC0194914A57FF
:1007F0005F4FFA0134913323D1F1222331F12330B9
:1008000021F4809180008F7705C0243031F48091ED
:1008100080008F7D8093800018C0213019F484B54A
:100820008F7704C0223021F484B58F7D84BD0DC044
:10083000263021F48091B0008F7705C0273029F44D
:100840008091B0008F7D8093B000E32FF0E0EE0F39
:10085000FF1FEE58FF4FA591B491662329F48C91A8
:10086000909589238C9308958C91892B8C9308956E
:10087000682F70E0CB0182559F4FFC012491CB0182
:1008800086569F4FFC0144916A577F4FFB0194911C
:10089000992319F420E030E038C0222331F12330CD
:1008A00021F4809180008F7705C0243031F480914D
:1008B00080008F7D8093800018C0213019F484B5AA
:1008C0008F7704C0223021F484B58F7D84BD0DC0A4
:1008D000263021F48091B0008F7705C0273029F4AD
:1008E0008091B0008F7D8093B000892F90E0880FB9
:1008F000991F84589F4FFC01A591B4918C9120E0E1
:1009000030E0842311F021E030E0C90108951F9206
:100910000F920FB60F9211242F933F934F935F9333
:100920006F937F938F939F93AF93BF93EF93FF93B7
:100930004091C600E091BF01F091C001CF01019646
:1009400060E870E00E9462089C018091C101909172
:10095000C2012817390739F0E15CFE4F408330931C
:10096000C0012093BF01FF91EF91BF91AF919F9183
:100970008F917F916F915F914F913F912F910F9048
:100980000FBE0F901F9018955F926F927F928F927B
:100990009F92AF92BF92CF92DF92EF92FF920F930E
:1009A0001F93CF93DF93EC013A014B01413482E472
:1009B00058078FE0680780E078070CF07FC060E898
:1009C00074E88EE190E0A40193010E949708215001
:1009D000304040405040CA01B90122E030E040E0E0
:1009E00050E00E94970859016A01A60195012095DF
:1009F00030954095509594E0220F331F441F551FAA
:100A00009A95D1F760E074E284EF90E00E94970835
:100A1000CA01B9012FEF30E040E050E00E944308E6
:100A2000A40193010E949708C90181509F4F181695
:100A300019061CF4522E5A9403C055245394521A8A
:100A400060E079E08DE390E0A40193010E949708B3
:100A50002150304040405040CA01B90122E030E00E
:100A600040E050E00E9497082095309540955095C1
:100A700083E0220F331F441F551F8A95D1F760E092
:100A800074E284EF90E00E949708CA01B9012FEF49
:100A900030E040E050E00E944308A40193010E942E
:100AA0009708C90181509F4F181619061CF4822F10
:100AB000815002C081E0821B851500F5E885F9852B
:100AC00081E090E00A8802C0880F991F0A94E2F73B
:100AD000808360E079E08DE390E0A40193010E94BF
:100AE00097082150304040405040CA01B90122E0EF
:100AF00030E040E050E00E94970804C0E885F985A6
:100B000010829501EC81FD813083EE81FF8120838D
:100B1000EA85FB85208141E050E0CA010E8402C0D5
:100B2000880F991F0A94E2F7282B2083EA85FB851A
:100B30002081CA010F8402C0880F991F0A94E2F72E
:100B4000282B2083EA85FB858081088802C0440F1A
:100B5000551F0A94E2F7842B8083DF91CF911F9178
:100B60000F91FF90EF90DF90CF90BF90AF909F904C
:100B70008F907F906F905F900895DC011296ED91B9
:100B8000FC911397EE57FF4F80819181929382934E
:100B90000895FC01A085B18521898C9190E0022EF9
:100BA00002C0959587950A94E2F780FFF6CF0484FA
:100BB000F585E02D6083089583E191E09093C40171
:100BC0008093C3018FE391E09093C6018093C501A8
:100BD00085EC90E09093C8018093C70184EC90E08D
:100BE0009093CA018093C90180EC90E09093CC016E
:100BF0008093CB0181EC90E09093CE018093CD0166
:100C000086EC90E09093D0018093CF0184E08093B4
:100C1000D10183E08093D20187E08093D30185E006
:100C20008093D40181E08093D50108950F931F93A1
:100C3000CF93DF938C01EB0109C02196D801ED9190
:100C4000FC910190F081E02DC8010995688166232F
:100C5000A1F7DF91CF911F910F910895EF92FF922D
:100C60000F931F93CF93DF938C017B01EA010CC09C
:100C7000D7016D917D01D801ED91FC910190F0813A
:100C8000E02DC80109952197209791F7DF91CF9129
:100C90001F910F91FF90EF9008952F923F924F92E6
:100CA0005F926F927F928F929F92AF92BF92CF92FC
:100CB000DF92EF92FF920F931F93DF93CF93CDB705
:100CC000DEB7A0970FB6F894DEBF0FBECDBF1C01F4
:100CD0006A017B01411551056105710549F4DC018B
:100CE000ED91FC910190F081E02D60E3099554C0F5
:100CF000882499245401422E55246624772401E047
:100D000010E00C0F1D1F080D191DC701B601A3012E
:100D100092010E947508F80160830894811C911C5F
:100D2000A11CB11CC701B601A30192010E94750864
:100D3000C901DA016C017D01C114D104E104F1049F
:100D4000F1F681E0E82EF12CEC0EFD1EE80CF91C0A
:100D50003E010894611C711CD501C4010197A109D1
:100D6000B1096C01C818D90814C0F601EE0DFF1DB9
:100D700060816A3010F4605D01C0695CD101ED9161
:100D8000FC910190F081E02DC10109950894E108E2
:100D9000F1086E147F0449F7A0960FB6F894DEBFF1
:100DA0000FBECDBFCF91DF911F910F91FF90EF90BC
:100DB000DF90CF90BF90AF909F908F907F906F907B
:100DC0005F904F903F902F900895EF92FF920F9376
:100DD0001F93CF93DF93EC017A018B0177FF0FC054
:100DE000E881F9810190F081E02D6DE2099510957F
:100DF0000095F094E094E11CF11C011D111DCE0141
:100E0000B801A7012AE00E944D06DF91CF911F9102
:100E10000F91FF90EF900895DC012115310541F409
:100E2000ED91FC910190F081E02D642F09950895DA
:100E30002A30310519F40E94E50608950E944D06F6
:100E40000895A8D008F481E008950CD0DEC0D6D073
:100E500040F0CDD030F021F45F3F19F0BFC0511108
:100E600008C1C2C0E3D098F39923C9F35523B1F365
:100E7000951B550BBB27AA2762177307840738F009
:100E80009F5F5F4F220F331F441FAA1FA9F333D068
:100E90000E2E3AF0E0E830D091505040E695001C1C
:100EA000CAF729D0FE2F27D0660F771F881FBB1FD8
:100EB000261737074807AB07B0E809F0BB0B802DB2
:100EC000BF01FF2793585F4F2AF09E3F510568F0FE
:100ED00085C0CFC05F3FECF3983EDCF386957795F5
:100EE0006795B795F7959F5FC9F7880F911D969500
:100EF000879597F90895E1E0660F771F881FBB1F5C
:100F0000621773078407BA0720F0621B730B840B08
:100F1000BA0BEE1F88F7E0950895E89409C097FB97
:100F20003EF490958095709561957F4F8F4F9F4FC0
:100F30009923A9F0F92F96E9BB279395F695879504
:100F400077956795B795F111F8CFFAF4BB0F11F4C7
:100F500060FF1BC06F5F7F4F8F4F9F4F16C088236E
:100F600011F096E911C0772321F09EE8872F762FA4
:100F700005C0662371F096E8862F70E060E02AF0E5
:100F80009A95660F771F881FDAF7880F96958795D1
:100F900097F90895990F0008550FAA0BE0E8FEEFA6
:100FA00016161706E807F907C0F012161306E4072D
:100FB000F50798F0621B730B840B950B39F40A2626
:100FC00061F0232B242B252B21F408950A2609F404
:100FD000A140A6958FEF811D811D089597F99F6708
:100FE00080E870E060E008959FEF80EC08950024B1
:100FF0000A941616170618060906089500240A947E
:1010000012161306140605060895092E0394000C03
:1010100011F4882352F0BB0F40F4BF2B11F460FF92
:1010200004C06F5F7F4F8F4F9F4F089557FD9058BB
:10103000440F551F59F05F3F71F04795880F97FB9C
:10104000991F61F09F3F79F0879508951216130656
:101050001406551FF2CF4695F1DF08C01616170685
:101060001806991FF1CF86957105610508940895BA
:10107000E894BB2766277727CB0197F908958ADF85
:1010800008F48FEF0895629FD001739FF001829F53
:10109000E00DF11D649FE00DF11D929FF00D839F07
:1010A000F00D749FF00D659FF00D9927729FB00DA4
:1010B000E11DF91F639FB00DE11DF91FBD01CF01B7
:1010C0001124089597FB092E07260AD077FD04D036
:1010D00049D006D000201AF4709561957F4F08958D
:1010E000F6F7909581959F4F0895A1E21A2EAA1BBD
:1010F000BB1BFD010DC0AA1FBB1FEE1FFF1FA217C8
:10110000B307E407F50720F0A21BB30BE40BF50BC4
:10111000661F771F881F991F1A9469F7609570954D
:10112000809590959B01AC01BD01CF01089597FB7F
:10113000092E05260ED057FD04D0D7DF0AD0001C9B
:1011400038F450954095309521953F4F4F4F5F4F64
:101150000895F6F790958095709561957F4F8F4F24
:101160009F4F0895AA1BBB1B51E107C0AA1FBB1FBD
:10117000A617B70710F0A61BB70B881F991F5A9523
:10118000A9F780959095BC01CD010895EE0FFF1F42
:0C1190000590F491E02D0994F894FFCF35
:10119C000100020002000000C03F0002000001003C
:0A11AC00000000C90516062E06001B
:00000001FF
